{
  "_format": "hh-sol-artifact-1",
  "contractName": "ExampleComputeLiquidityValue",
  "sourceName": "contracts/examples/ExampleComputeLiquidityValue.sol",
  "abi": [
    {
      "inputs": [
        {
          "internalType": "address",
          "name": "factory_",
          "type": "address"
        }
      ],
      "stateMutability": "nonpayable",
      "type": "constructor"
    },
    {
      "inputs": [],
      "name": "factory",
      "outputs": [
        {
          "internalType": "address",
          "name": "",
          "type": "address"
        }
      ],
      "stateMutability": "view",
      "type": "function"
    },
    {
      "inputs": [
        {
          "internalType": "address",
          "name": "tokenA",
          "type": "address"
        },
        {
          "internalType": "address",
          "name": "tokenB",
          "type": "address"
        },
        {
          "internalType": "uint256",
          "name": "truePriceTokenA",
          "type": "uint256"
        },
        {
          "internalType": "uint256",
          "name": "truePriceTokenB",
          "type": "uint256"
        },
        {
          "internalType": "uint256",
          "name": "liquidityAmount",
          "type": "uint256"
        }
      ],
      "name": "getGasCostOfGetLiquidityValueAfterArbitrageToPrice",
      "outputs": [
        {
          "internalType": "uint256",
          "name": "",
          "type": "uint256"
        }
      ],
      "stateMutability": "view",
      "type": "function"
    },
    {
      "inputs": [
        {
          "internalType": "address",
          "name": "tokenA",
          "type": "address"
        },
        {
          "internalType": "address",
          "name": "tokenB",
          "type": "address"
        },
        {
          "internalType": "uint256",
          "name": "liquidityAmount",
          "type": "uint256"
        }
      ],
      "name": "getLiquidityValue",
      "outputs": [
        {
          "internalType": "uint256",
          "name": "tokenAAmount",
          "type": "uint256"
        },
        {
          "internalType": "uint256",
          "name": "tokenBAmount",
          "type": "uint256"
        }
      ],
      "stateMutability": "view",
      "type": "function"
    },
    {
      "inputs": [
        {
          "internalType": "address",
          "name": "tokenA",
          "type": "address"
        },
        {
          "internalType": "address",
          "name": "tokenB",
          "type": "address"
        },
        {
          "internalType": "uint256",
          "name": "truePriceTokenA",
          "type": "uint256"
        },
        {
          "internalType": "uint256",
          "name": "truePriceTokenB",
          "type": "uint256"
        },
        {
          "internalType": "uint256",
          "name": "liquidityAmount",
          "type": "uint256"
        }
      ],
      "name": "getLiquidityValueAfterArbitrageToPrice",
      "outputs": [
        {
          "internalType": "uint256",
          "name": "tokenAAmount",
          "type": "uint256"
        },
        {
          "internalType": "uint256",
          "name": "tokenBAmount",
          "type": "uint256"
        }
      ],
      "stateMutability": "view",
      "type": "function"
    },
    {
      "inputs": [
        {
          "internalType": "address",
          "name": "tokenA",
          "type": "address"
        },
        {
          "internalType": "address",
          "name": "tokenB",
          "type": "address"
        },
        {
          "internalType": "uint256",
          "name": "truePriceTokenA",
          "type": "uint256"
        },
        {
          "internalType": "uint256",
          "name": "truePriceTokenB",
          "type": "uint256"
        }
      ],
      "name": "getReservesAfterArbitrage",
      "outputs": [
        {
          "internalType": "uint256",
          "name": "reserveA",
          "type": "uint256"
        },
        {
          "internalType": "uint256",
          "name": "reserveB",
          "type": "uint256"
        }
      ],
      "stateMutability": "view",
      "type": "function"
    }
  ],
  "bytecode": "0x60a060405234801561001057600080fd5b506040516116613803806116618339818101604052602081101561003357600080fd5b81019080805190602001909291905050508073ffffffffffffffffffffffffffffffffffffffff1660808173ffffffffffffffffffffffffffffffffffffffff1660601b815250505060805160601c6115b46100ad600039806102fd528061033a528061037c52806103be52806103e852506115b46000f3fe608060405234801561001057600080fd5b50600436106100575760003560e01c80633558e94c1461005c57806369a2fcbd146100ef57806380caa3531461018c578063c45a015514610222578063d9b7a6e71461026c575b600080fd5b6100d26004803603608081101561007257600080fd5b81019080803573ffffffffffffffffffffffffffffffffffffffff169060200190929190803573ffffffffffffffffffffffffffffffffffffffff16906020019092919080359060200190929190803590602001909291905050506102f5565b604051808381526020018281526020019250505060405180910390f35b61016f600480360360a081101561010557600080fd5b81019080803573ffffffffffffffffffffffffffffffffffffffff169060200190929190803573ffffffffffffffffffffffffffffffffffffffff169060200190929190803590602001909291908035906020019092919080359060200190929190505050610332565b604051808381526020018281526020019250505060405180910390f35b61020c600480360360a08110156101a257600080fd5b81019080803573ffffffffffffffffffffffffffffffffffffffff169060200190929190803573ffffffffffffffffffffffffffffffffffffffff169060200190929190803590602001909291908035906020019092919080359060200190929190505050610371565b6040518082815260200191505060405180910390f35b61022a6103bc565b604051808273ffffffffffffffffffffffffffffffffffffffff1673ffffffffffffffffffffffffffffffffffffffff16815260200191505060405180910390f35b6102d86004803603606081101561028257600080fd5b81019080803573ffffffffffffffffffffffffffffffffffffffff169060200190929190803573ffffffffffffffffffffffffffffffffffffffff169060200190929190803590602001909291905050506103e0565b604051808381526020018281526020019250505060405180910390f35b6000806103257f00000000000000000000000000000000000000000000000000000000000000008787878761041b565b9150915094509492505050565b6000806103637f0000000000000000000000000000000000000000000000000000000000000000888888888861050c565b915091509550959350505050565b6000805a90506103a57f0000000000000000000000000000000000000000000000000000000000000000888888888861050c565b505060005a90508082039250505095945050505050565b7f000000000000000000000000000000000000000000000000000000000000000081565b60008061040f7f0000000000000000000000000000000000000000000000000000000000000000868686610785565b91509150935093915050565b600080610429878787610995565b80925081935050506000821180156104415750600081115b610496576040517f08c379a000000000000000000000000000000000000000000000000000000000815260040180806020018281038252602d8152602001806114b3602d913960400191505060405180910390fd5b6000806104a586868686610abe565b9150915060008114156104bf578383935093505050610502565b81156104e45760006104d2828686610bbe565b905081850194508084039350506104ff565b60006104f1828587610bbe565b905081840193508085039450505b50505b9550959350505050565b60008060008073ffffffffffffffffffffffffffffffffffffffff168973ffffffffffffffffffffffffffffffffffffffff1663017e7e586040518163ffffffff1660e01b815260040160206040518083038186803b15801561056e57600080fd5b505afa158015610582573d6000803e3d6000fd5b505050506040513d602081101561059857600080fd5b810190808051906020019092919050505073ffffffffffffffffffffffffffffffffffffffff161415905060006105d08a8a8a610cee565b90506000826105e0576000610662565b8173ffffffffffffffffffffffffffffffffffffffff16637464fc3d6040518163ffffffff1660e01b815260040160206040518083038186803b15801561062657600080fd5b505afa15801561063a573d6000803e3d6000fd5b505050506040513d602081101561065057600080fd5b81019080805190602001909291905050505b905060008273ffffffffffffffffffffffffffffffffffffffff166318160ddd6040518163ffffffff1660e01b815260040160206040518083038186803b1580156106ac57600080fd5b505afa1580156106c0573d6000803e3d6000fd5b505050506040513d60208110156106d657600080fd5b810190808051906020019092919050505090508681101580156106f95750600087115b61074e576040517f08c379a000000000000000000000000000000000000000000000000000000000815260040180806020018281038252602781526020018061152d6027913960400191505060405180910390fd5b60008061075e8e8e8e8e8e61041b565b915091506107708282858c8a89610e49565b97509750505050505050965096945050505050565b600080600080610796888888610995565b9150915060006107a7898989610cee565b905060008073ffffffffffffffffffffffffffffffffffffffff168a73ffffffffffffffffffffffffffffffffffffffff1663017e7e586040518163ffffffff1660e01b815260040160206040518083038186803b15801561080857600080fd5b505afa15801561081c573d6000803e3d6000fd5b505050506040513d602081101561083257600080fd5b810190808051906020019092919050505073ffffffffffffffffffffffffffffffffffffffff161415905060008161086b5760006108ed565b8273ffffffffffffffffffffffffffffffffffffffff16637464fc3d6040518163ffffffff1660e01b815260040160206040518083038186803b1580156108b157600080fd5b505afa1580156108c5573d6000803e3d6000fd5b505050506040513d60208110156108db57600080fd5b81019080805190602001909291905050505b905060008373ffffffffffffffffffffffffffffffffffffffff166318160ddd6040518163ffffffff1660e01b815260040160206040518083038186803b15801561093757600080fd5b505afa15801561094b573d6000803e3d6000fd5b505050506040513d602081101561096157600080fd5b810190808051906020019092919050505090506109828686838c8787610e49565b9750975050505050505094509492505050565b60008060006109a48585610f4b565b5090506000806109b5888888610cee565b73ffffffffffffffffffffffffffffffffffffffff16630902f1ac6040518163ffffffff1660e01b815260040160606040518083038186803b1580156109fa57600080fd5b505afa158015610a0e573d6000803e3d6000fd5b505050506040513d6060811015610a2457600080fd5b81019080805190602001909291908051906020019092919080519060200190929190505050506dffffffffffffffffffffffffffff1691506dffffffffffffffffffffffffffff1691508273ffffffffffffffffffffffffffffffffffffffff168773ffffffffffffffffffffffffffffffffffffffff1614610aa8578082610aab565b81815b8095508196505050505050935093915050565b60008085610acd8587866110c2565b1091506000610ae5848661119a90919063ffffffff16565b90506000610b3c610b37610b046103e88561119a90919063ffffffff16565b86610b0f5789610b11565b8a5b610b326103e589610b22578d610b24565b8c5b61119a90919063ffffffff16565b6110c2565b61122f565b905060006103e585610b6257610b5d6103e88861119a90919063ffffffff16565b610b78565b610b776103e88961119a90919063ffffffff16565b5b81610b7f57fe5b04905080821015610b9c5760008080905094509450505050610bb5565b610baf81836113ac90919063ffffffff16565b93505050505b94509492505050565b6000808411610c18576040517f08c379a000000000000000000000000000000000000000000000000000000000815260040180806020018281038252602b815260200180611554602b913960400191505060405180910390fd5b600083118015610c285750600082115b610c7d576040517f08c379a00000000000000000000000000000000000000000000000000000000081526004018080602001828103825260288152602001806115056028913960400191505060405180910390fd5b6000610c946103e58661119a90919063ffffffff16565b90506000610cab848361119a90919063ffffffff16565b90506000610cd683610cc86103e88961119a90919063ffffffff16565b61142f90919063ffffffff16565b9050808281610ce157fe5b0493505050509392505050565b6000806000610cfd8585610f4b565b91509150858282604051602001808373ffffffffffffffffffffffffffffffffffffffff1673ffffffffffffffffffffffffffffffffffffffff1660601b81526014018273ffffffffffffffffffffffffffffffffffffffff1673ffffffffffffffffffffffffffffffffffffffff1660601b8152601401925050506040516020818303038152906040528051906020012060405160200180807fff000000000000000000000000000000000000000000000000000000000000008152506001018373ffffffffffffffffffffffffffffffffffffffff1673ffffffffffffffffffffffffffffffffffffffff1660601b8152601401828152602001807fea0adca797c0d522aea9c0590ccb8342d2a264c0ff9b00fba61a2ae393e2292e815250602001925050506040516020818303038152906040528051906020012060001c925050509392505050565b600080838015610e595750600083115b15610f04576000610e7b610e76898b61119a90919063ffffffff16565b61122f565b90506000610e888561122f565b905080821115610f015760008890506000610eac83856113ac90919063ffffffff16565b90506000610ed684610ec860058861119a90919063ffffffff16565b61142f90919063ffffffff16565b90506000610ee58484846110c2565b9050610efa818d61142f90919063ffffffff16565b9b50505050505b50505b85610f18868a61119a90919063ffffffff16565b81610f1f57fe5b0486610f34878a61119a90919063ffffffff16565b81610f3b57fe5b0491509150965096945050505050565b6000808273ffffffffffffffffffffffffffffffffffffffff168473ffffffffffffffffffffffffffffffffffffffff161415610fd3576040517f08c379a00000000000000000000000000000000000000000000000000000000081526004018080602001828103825260258152602001806114e06025913960400191505060405180910390fd5b8273ffffffffffffffffffffffffffffffffffffffff168473ffffffffffffffffffffffffffffffffffffffff161061100d578284611010565b83835b8092508193505050600073ffffffffffffffffffffffffffffffffffffffff168273ffffffffffffffffffffffffffffffffffffffff1614156110bb576040517f08c379a000000000000000000000000000000000000000000000000000000000815260040180806020018281038252601e8152602001807f556e697377617056324c6962726172793a205a45524f5f41444452455353000081525060200191505060405180910390fd5b9250929050565b6000806000801985870985870292508281108382030391505060008114156110f7578382816110ed57fe5b0492505050611193565b80841161110357600080fd5b60008486880990508281118203915080830392506000600186190186169050808604955080840493506001818260000304019050808302841793506000600287600302189050808702600203810290508087026002038102905080870260020381029050808702600203810290508087026002038102905080870260020381029050808502955085955050505050505b9392505050565b6000808214806111b757508282838502925082816111b457fe5b04145b611229576040517f08c379a00000000000000000000000000000000000000000000000000000000081526004018080602001828103825260148152602001807f64732d6d6174682d6d756c2d6f766572666c6f7700000000000000000000000081525060200191505060405180910390fd5b92915050565b60008082141561124257600090506113a7565b6000829050600060019050700100000000000000000000000000000000821061127457608082901c9150604081901b90505b68010000000000000000821061129357604082901c9150602081901b90505b64010000000082106112ae57602082901c9150601081901b90505b6201000082106112c757601082901c9150600881901b90505b61010082106112df57600882901c9150600481901b90505b601082106112f657600482901c9150600281901b90505b6008821061130657600181901b90505b600181858161131157fe5b048201901c9050600181858161132357fe5b048201901c9050600181858161133557fe5b048201901c9050600181858161134757fe5b048201901c9050600181858161135957fe5b048201901c9050600181858161136b57fe5b048201901c9050600181858161137d57fe5b048201901c9050600081858161138f57fe5b04905080821061139f57806113a1565b815b93505050505b919050565b6000828284039150811115611429576040517f08c379a00000000000000000000000000000000000000000000000000000000081526004018080602001828103825260158152602001807f64732d6d6174682d7375622d756e646572666c6f77000000000000000000000081525060200191505060405180910390fd5b92915050565b60008282840191508110156114ac576040517f08c379a00000000000000000000000000000000000000000000000000000000081526004018080602001828103825260148152602001807f64732d6d6174682d6164642d6f766572666c6f7700000000000000000000000081525060200191505060405180910390fd5b9291505056fe556e697377617056324172626974726167654c6962726172793a205a45524f5f504149525f5245534552564553556e697377617056324c6962726172793a204944454e544943414c5f414444524553534553556e697377617056324c6962726172793a20494e53554646494349454e545f4c4951554944495459436f6d707574654c697175696469747956616c75653a204c49515549444954595f414d4f554e54556e697377617056324c6962726172793a20494e53554646494349454e545f494e5055545f414d4f554e54a26469706673582212206aba6698a0c0f5a0ccba7fcee4582fc1657a27bf187b77ee198a27dbdb87751364736f6c63430006060033",
  "linkReferences": {},
  "deployedLinkReferences": {}
}