{
  "@uniswap/lib/contracts/libraries/FixedPoint.sol": {
    "FixedPoint": {
      "abi": [
        {
          "inputs": [],
          "name": "Q112",
          "outputs": [
            {
              "internalType": "uint256",
              "name": "",
              "type": "uint256"
            }
          ],
          "stateMutability": "view",
          "type": "function"
        },
        {
          "inputs": [],
          "name": "RESOLUTION",
          "outputs": [
            {
              "internalType": "uint8",
              "name": "",
              "type": "uint8"
            }
          ],
          "stateMutability": "view",
          "type": "function"
        }
      ],
      "evm": {
        "bytecode": {
          "linkReferences": {},
          "object": "610127610053600b82828239805160001a607314610046577f4e487b7100000000000000000000000000000000000000000000000000000000600052600060045260246000fd5b30600052607381538281f3fe7300000000000000000000000000000000000000003014608060405260043610603d5760003560e01c80633bf7a83e146042578063552f888a14605c575b600080fd5b60486076565b6040516053919060a5565b60405180910390f35b60626089565b604051606d919060d8565b60405180910390f35b6e01000000000000000000000000000081565b607081565b6000819050919050565b609f81608e565b82525050565b600060208201905060b860008301846098565b92915050565b600060ff82169050919050565b60d28160be565b82525050565b600060208201905060eb600083018460cb565b9291505056fea26469706673582212201c18d30c902543c612c5f42812146ec62126cf3bd56c5c34469c31c363c2dfd564736f6c63430008090033",
          "opcodes": "PUSH2 0x127 PUSH2 0x53 PUSH1 0xB DUP3 DUP3 DUP3 CODECOPY DUP1 MLOAD PUSH1 0x0 BYTE PUSH1 0x73 EQ PUSH2 0x46 JUMPI PUSH32 0x4E487B7100000000000000000000000000000000000000000000000000000000 PUSH1 0x0 MSTORE PUSH1 0x0 PUSH1 0x4 MSTORE PUSH1 0x24 PUSH1 0x0 REVERT JUMPDEST ADDRESS PUSH1 0x0 MSTORE PUSH1 0x73 DUP2 MSTORE8 DUP3 DUP2 RETURN INVALID PUSH20 0x0 ADDRESS EQ PUSH1 0x80 PUSH1 0x40 MSTORE PUSH1 0x4 CALLDATASIZE LT PUSH1 0x3D JUMPI PUSH1 0x0 CALLDATALOAD PUSH1 0xE0 SHR DUP1 PUSH4 0x3BF7A83E EQ PUSH1 0x42 JUMPI DUP1 PUSH4 0x552F888A EQ PUSH1 0x5C JUMPI JUMPDEST PUSH1 0x0 DUP1 REVERT JUMPDEST PUSH1 0x48 PUSH1 0x76 JUMP JUMPDEST PUSH1 0x40 MLOAD PUSH1 0x53 SWAP2 SWAP1 PUSH1 0xA5 JUMP JUMPDEST PUSH1 0x40 MLOAD DUP1 SWAP2 SUB SWAP1 RETURN JUMPDEST PUSH1 0x62 PUSH1 0x89 JUMP JUMPDEST PUSH1 0x40 MLOAD PUSH1 0x6D SWAP2 SWAP1 PUSH1 0xD8 JUMP JUMPDEST PUSH1 0x40 MLOAD DUP1 SWAP2 SUB SWAP1 RETURN JUMPDEST PUSH15 0x10000000000000000000000000000 DUP2 JUMP JUMPDEST PUSH1 0x70 DUP2 JUMP JUMPDEST PUSH1 0x0 DUP2 SWAP1 POP SWAP2 SWAP1 POP JUMP JUMPDEST PUSH1 0x9F DUP2 PUSH1 0x8E JUMP JUMPDEST DUP3 MSTORE POP POP JUMP JUMPDEST PUSH1 0x0 PUSH1 0x20 DUP3 ADD SWAP1 POP PUSH1 0xB8 PUSH1 0x0 DUP4 ADD DUP5 PUSH1 0x98 JUMP JUMPDEST SWAP3 SWAP2 POP POP JUMP JUMPDEST PUSH1 0x0 PUSH1 0xFF DUP3 AND SWAP1 POP SWAP2 SWAP1 POP JUMP JUMPDEST PUSH1 0xD2 DUP2 PUSH1 0xBE JUMP JUMPDEST DUP3 MSTORE POP POP JUMP JUMPDEST PUSH1 0x0 PUSH1 0x20 DUP3 ADD SWAP1 POP PUSH1 0xEB PUSH1 0x0 DUP4 ADD DUP5 PUSH1 0xCB JUMP JUMPDEST SWAP3 SWAP2 POP POP JUMP INVALID LOG2 PUSH5 0x6970667358 0x22 SLT KECCAK256 SHR XOR 0xD3 0xC SWAP1 0x25 NUMBER 0xC6 SLT 0xC5 DELEGATECALL 0x28 SLT EQ PUSH15 0xC62126CF3BD56C5C34469C31C363C2 0xDF 0xD5 PUSH5 0x736F6C6343 STOP ADDMOD MULMOD STOP CALLER "
        },
        "methodIdentifiers": {
          "Q112()": "3bf7a83e",
          "RESOLUTION()": "552f888a"
        }
      }
    }
  }
}